{"abi":[{"type":"constructor","inputs":[{"name":"_minter","type":"address","internalType":"address"}],"stateMutability":"nonpayable"},{"type":"function","name":"allowance","inputs":[{"name":"owner","type":"address","internalType":"address"},{"name":"spender","type":"address","internalType":"address"}],"outputs":[{"name":"","type":"uint256","internalType":"uint256"}],"stateMutability":"view"},{"type":"function","name":"approve","inputs":[{"name":"spender","type":"address","internalType":"address"},{"name":"value","type":"uint256","internalType":"uint256"}],"outputs":[{"name":"","type":"bool","internalType":"bool"}],"stateMutability":"nonpayable"},{"type":"function","name":"balanceOf","inputs":[{"name":"account","type":"address","internalType":"address"}],"outputs":[{"name":"","type":"uint256","internalType":"uint256"}],"stateMutability":"view"},{"type":"function","name":"decimals","inputs":[],"outputs":[{"name":"","type":"uint8","internalType":"uint8"}],"stateMutability":"view"},{"type":"function","name":"mint","inputs":[{"name":"to","type":"address","internalType":"address"},{"name":"amount","type":"uint256","internalType":"uint256"}],"outputs":[],"stateMutability":"nonpayable"},{"type":"function","name":"minter","inputs":[],"outputs":[{"name":"","type":"address","internalType":"address"}],"stateMutability":"view"},{"type":"function","name":"name","inputs":[],"outputs":[{"name":"","type":"string","internalType":"string"}],"stateMutability":"view"},{"type":"function","name":"setMinter","inputs":[{"name":"_minter","type":"address","internalType":"address"}],"outputs":[],"stateMutability":"nonpayable"},{"type":"function","name":"symbol","inputs":[],"outputs":[{"name":"","type":"string","internalType":"string"}],"stateMutability":"view"},{"type":"function","name":"totalSupply","inputs":[],"outputs":[{"name":"","type":"uint256","internalType":"uint256"}],"stateMutability":"view"},{"type":"function","name":"transfer","inputs":[{"name":"to","type":"address","internalType":"address"},{"name":"value","type":"uint256","internalType":"uint256"}],"outputs":[{"name":"","type":"bool","internalType":"bool"}],"stateMutability":"nonpayable"},{"type":"function","name":"transferFrom","inputs":[{"name":"from","type":"address","internalType":"address"},{"name":"to","type":"address","internalType":"address"},{"name":"value","type":"uint256","internalType":"uint256"}],"outputs":[{"name":"","type":"bool","internalType":"bool"}],"stateMutability":"nonpayable"},{"type":"event","name":"Approval","inputs":[{"name":"owner","type":"address","indexed":true,"internalType":"address"},{"name":"spender","type":"address","indexed":true,"internalType":"address"},{"name":"value","type":"uint256","indexed":false,"internalType":"uint256"}],"anonymous":false},{"type":"event","name":"Transfer","inputs":[{"name":"from","type":"address","indexed":true,"internalType":"address"},{"name":"to","type":"address","indexed":true,"internalType":"address"},{"name":"value","type":"uint256","indexed":false,"internalType":"uint256"}],"anonymous":false},{"type":"error","name":"ERC20InsufficientAllowance","inputs":[{"name":"spender","type":"address","internalType":"address"},{"name":"allowance","type":"uint256","internalType":"uint256"},{"name":"needed","type":"uint256","internalType":"uint256"}]},{"type":"error","name":"ERC20InsufficientBalance","inputs":[{"name":"sender","type":"address","internalType":"address"},{"name":"balance","type":"uint256","internalType":"uint256"},{"name":"needed","type":"uint256","internalType":"uint256"}]},{"type":"error","name":"ERC20InvalidApprover","inputs":[{"name":"approver","type":"address","internalType":"address"}]},{"type":"error","name":"ERC20InvalidReceiver","inputs":[{"name":"receiver","type":"address","internalType":"address"}]},{"type":"error","name":"ERC20InvalidSender","inputs":[{"name":"sender","type":"address","internalType":"address"}]},{"type":"error","name":"ERC20InvalidSpender","inputs":[{"name":"spender","type":"address","internalType":"address"}]}],"bytecode":{"object":"0x608060405234801561000f575f5ffd5b5060405161157b38038061157b83398181016040528101906100319190610163565b6040518060400160405280600981526020017f7072617479436f696e00000000000000000000000000000000000000000000008152506040518060400160405280600381526020017f504d54000000000000000000000000000000000000000000000000000000000081525081600390816100ac91906103cb565b5080600490816100bc91906103cb565b5050508060055f6101000a81548173ffffffffffffffffffffffffffffffffffffffff021916908373ffffffffffffffffffffffffffffffffffffffff1602179055505061049a565b5f5ffd5b5f73ffffffffffffffffffffffffffffffffffffffff82169050919050565b5f61013282610109565b9050919050565b61014281610128565b811461014c575f5ffd5b50565b5f8151905061015d81610139565b92915050565b5f6020828403121561017857610177610105565b5b5f6101858482850161014f565b91505092915050565b5f81519050919050565b7f4e487b71000000000000000000000000000000000000000000000000000000005f52604160045260245ffd5b7f4e487b71000000000000000000000000000000000000000000000000000000005f52602260045260245ffd5b5f600282049050600182168061020957607f821691505b60208210810361021c5761021b6101c5565b5b50919050565b5f819050815f5260205f209050919050565b5f6020601f8301049050919050565b5f82821b905092915050565b5f6008830261027e7fffffffffffffffffffffffffffffffffffffffffffffffffffffffffffffffff82610243565b6102888683610243565b95508019841693508086168417925050509392505050565b5f819050919050565b5f819050919050565b5f6102cc6102c76102c2846102a0565b6102a9565b6102a0565b9050919050565b5f819050919050565b6102e5836102b2565b6102f96102f1826102d3565b84845461024f565b825550505050565b5f5f905090565b610310610301565b61031b8184846102dc565b505050565b5b8181101561033e576103335f82610308565b600181019050610321565b5050565b601f8211156103835761035481610222565b61035d84610234565b8101602085101561036c578190505b61038061037885610234565b830182610320565b50505b505050565b5f82821c905092915050565b5f6103a35f1984600802610388565b1980831691505092915050565b5f6103bb8383610394565b9150826002028217905092915050565b6103d48261018e565b67ffffffffffffffff8111156103ed576103ec610198565b5b6103f782546101f2565b610402828285610342565b5f60209050601f831160018114610433575f8415610421578287015190505b61042b85826103b0565b865550610492565b601f19841661044186610222565b5f5b8281101561046857848901518255600182019150602085019450602081019050610443565b868310156104855784890151610481601f891682610394565b8355505b6001600288020188555050505b505050505050565b6110d4806104a75f395ff3fe608060405234801561000f575f5ffd5b50600436106100b2575f3560e01c806340c10f191161006f57806340c10f191461018e57806370a08231146101aa57806395d89b41146101da578063a9059cbb146101f8578063dd62ed3e14610228578063fca3b5aa14610258576100b2565b806306fdde03146100b657806307546172146100d4578063095ea7b3146100f257806318160ddd1461012257806323b872dd14610140578063313ce56714610170575b5f5ffd5b6100be610274565b6040516100cb9190610ce5565b60405180910390f35b6100dc610304565b6040516100e99190610d44565b60405180910390f35b61010c60048036038101906101079190610dbe565b610329565b6040516101199190610e16565b60405180910390f35b61012a61034b565b6040516101379190610e3e565b60405180910390f35b61015a60048036038101906101559190610e57565b610354565b6040516101679190610e16565b60405180910390f35b610178610382565b6040516101859190610ec2565b60405180910390f35b6101a860048036038101906101a39190610dbe565b61038a565b005b6101c460048036038101906101bf9190610edb565b610427565b6040516101d19190610e3e565b60405180910390f35b6101e261046c565b6040516101ef9190610ce5565b60405180910390f35b610212600480360381019061020d9190610dbe565b6104fc565b60405161021f9190610e16565b60405180910390f35b610242600480360381019061023d9190610f06565b61051e565b60405161024f9190610e3e565b60405180910390f35b610272600480360381019061026d9190610edb565b6105a0565b005b60606003805461028390610f71565b80601f01602080910402602001604051908101604052809291908181526020018280546102af90610f71565b80156102fa5780601f106102d1576101008083540402835291602001916102fa565b820191905f5260205f20905b8154815290600101906020018083116102dd57829003601f168201915b5050505050905090565b60055f9054906101000a900473ffffffffffffffffffffffffffffffffffffffff1681565b5f5f610333610672565b9050610340818585610679565b600191505092915050565b5f600254905090565b5f5f61035e610672565b905061036b85828561068b565b61037685858561071e565b60019150509392505050565b5f6012905090565b60055f9054906101000a900473ffffffffffffffffffffffffffffffffffffffff1673ffffffffffffffffffffffffffffffffffffffff163373ffffffffffffffffffffffffffffffffffffffff1614610419576040517f08c379a000000000000000000000000000000000000000000000000000000000815260040161041090610feb565b60405180910390fd5b610423828261080e565b5050565b5f5f5f8373ffffffffffffffffffffffffffffffffffffffff1673ffffffffffffffffffffffffffffffffffffffff1681526020019081526020015f20549050919050565b60606004805461047b90610f71565b80601f01602080910402602001604051908101604052809291908181526020018280546104a790610f71565b80156104f25780601f106104c9576101008083540402835291602001916104f2565b820191905f5260205f20905b8154815290600101906020018083116104d557829003601f168201915b5050505050905090565b5f5f610506610672565b905061051381858561071e565b600191505092915050565b5f60015f8473ffffffffffffffffffffffffffffffffffffffff1673ffffffffffffffffffffffffffffffffffffffff1681526020019081526020015f205f8373ffffffffffffffffffffffffffffffffffffffff1673ffffffffffffffffffffffffffffffffffffffff1681526020019081526020015f2054905092915050565b60055f9054906101000a900473ffffffffffffffffffffffffffffffffffffffff1673ffffffffffffffffffffffffffffffffffffffff163373ffffffffffffffffffffffffffffffffffffffff161461062f576040517f08c379a000000000000000000000000000000000000000000000000000000000815260040161062690610feb565b60405180910390fd5b8060055f6101000a81548173ffffffffffffffffffffffffffffffffffffffff021916908373ffffffffffffffffffffffffffffffffffffffff16021790555050565b5f33905090565b610686838383600161088d565b505050565b5f610696848461051e565b90507fffffffffffffffffffffffffffffffffffffffffffffffffffffffffffffffff8110156107185781811015610709578281836040517ffb8f41b200000000000000000000000000000000000000000000000000000000815260040161070093929190611009565b60405180910390fd5b61071784848484035f61088d565b5b50505050565b5f73ffffffffffffffffffffffffffffffffffffffff168373ffffffffffffffffffffffffffffffffffffffff160361078e575f6040517f96c6fd1e0000000000000000000000000000000000000000000000000000000081526004016107859190610d44565b60405180910390fd5b5f73ffffffffffffffffffffffffffffffffffffffff168273ffffffffffffffffffffffffffffffffffffffff16036107fe575f6040517fec442f050000000000000000000000000000000000000000000000000000000081526004016107f59190610d44565b60405180910390fd5b610809838383610a5c565b505050565b5f73ffffffffffffffffffffffffffffffffffffffff168273ffffffffffffffffffffffffffffffffffffffff160361087e575f6040517fec442f050000000000000000000000000000000000000000000000000000000081526004016108759190610d44565b60405180910390fd5b6108895f8383610a5c565b5050565b5f73ffffffffffffffffffffffffffffffffffffffff168473ffffffffffffffffffffffffffffffffffffffff16036108fd575f6040517fe602df050000000000000000000000000000000000000000000000000000000081526004016108f49190610d44565b60405180910390fd5b5f73ffffffffffffffffffffffffffffffffffffffff168373ffffffffffffffffffffffffffffffffffffffff160361096d575f6040517f94280d620000000000000000000000000000000000000000000000000000000081526004016109649190610d44565b60405180910390fd5b8160015f8673ffffffffffffffffffffffffffffffffffffffff1673ffffffffffffffffffffffffffffffffffffffff1681526020019081526020015f205f8573ffffffffffffffffffffffffffffffffffffffff1673ffffffffffffffffffffffffffffffffffffffff1681526020019081526020015f20819055508015610a56578273ffffffffffffffffffffffffffffffffffffffff168473ffffffffffffffffffffffffffffffffffffffff167f8c5be1e5ebec7d5bd14f71427d1e84f3dd0314c0f7b2291e5b200ac8c7c3b92584604051610a4d9190610e3e565b60405180910390a35b50505050565b5f73ffffffffffffffffffffffffffffffffffffffff168373ffffffffffffffffffffffffffffffffffffffff1603610aac578060025f828254610aa0919061106b565b92505081905550610b7a565b5f5f5f8573ffffffffffffffffffffffffffffffffffffffff1673ffffffffffffffffffffffffffffffffffffffff1681526020019081526020015f2054905081811015610b35578381836040517fe450d38c000000000000000000000000000000000000000000000000000000008152600401610b2c93929190611009565b60405180910390fd5b8181035f5f8673ffffffffffffffffffffffffffffffffffffffff1673ffffffffffffffffffffffffffffffffffffffff1681526020019081526020015f2081905550505b5f73ffffffffffffffffffffffffffffffffffffffff168273ffffffffffffffffffffffffffffffffffffffff1603610bc1578060025f8282540392505081905550610c0b565b805f5f8473ffffffffffffffffffffffffffffffffffffffff1673ffffffffffffffffffffffffffffffffffffffff1681526020019081526020015f205f82825401925050819055505b8173ffffffffffffffffffffffffffffffffffffffff168373ffffffffffffffffffffffffffffffffffffffff167fddf252ad1be2c89b69c2b068fc378daa952ba7f163c4a11628f55a4df523b3ef83604051610c689190610e3e565b60405180910390a3505050565b5f81519050919050565b5f82825260208201905092915050565b8281835e5f83830152505050565b5f601f19601f8301169050919050565b5f610cb782610c75565b610cc18185610c7f565b9350610cd1818560208601610c8f565b610cda81610c9d565b840191505092915050565b5f6020820190508181035f830152610cfd8184610cad565b905092915050565b5f73ffffffffffffffffffffffffffffffffffffffff82169050919050565b5f610d2e82610d05565b9050919050565b610d3e81610d24565b82525050565b5f602082019050610d575f830184610d35565b92915050565b5f5ffd5b610d6a81610d24565b8114610d74575f5ffd5b50565b5f81359050610d8581610d61565b92915050565b5f819050919050565b610d9d81610d8b565b8114610da7575f5ffd5b50565b5f81359050610db881610d94565b92915050565b5f5f60408385031215610dd457610dd3610d5d565b5b5f610de185828601610d77565b9250506020610df285828601610daa565b9150509250929050565b5f8115159050919050565b610e1081610dfc565b82525050565b5f602082019050610e295f830184610e07565b92915050565b610e3881610d8b565b82525050565b5f602082019050610e515f830184610e2f565b92915050565b5f5f5f60608486031215610e6e57610e6d610d5d565b5b5f610e7b86828701610d77565b9350506020610e8c86828701610d77565b9250506040610e9d86828701610daa565b9150509250925092565b5f60ff82169050919050565b610ebc81610ea7565b82525050565b5f602082019050610ed55f830184610eb3565b92915050565b5f60208284031215610ef057610eef610d5d565b5b5f610efd84828501610d77565b91505092915050565b5f5f60408385031215610f1c57610f1b610d5d565b5b5f610f2985828601610d77565b9250506020610f3a85828601610d77565b9150509250929050565b7f4e487b71000000000000000000000000000000000000000000000000000000005f52602260045260245ffd5b5f6002820490506001821680610f8857607f821691505b602082108103610f9b57610f9a610f44565b5b50919050565b7f4e6f7420617574686f72697a656420746f206d696e74000000000000000000005f82015250565b5f610fd5601683610c7f565b9150610fe082610fa1565b602082019050919050565b5f6020820190508181035f83015261100281610fc9565b9050919050565b5f60608201905061101c5f830186610d35565b6110296020830185610e2f565b6110366040830184610e2f565b949350505050565b7f4e487b71000000000000000000000000000000000000000000000000000000005f52601160045260245ffd5b5f61107582610d8b565b915061108083610d8b565b92508282019050808211156110985761109761103e565b5b9291505056fea26469706673582212200f8ec2475b10e1ecabc9d662097f1c74ad104771d8de7f7ada29f5aa170b516764736f6c634300081e0033","linkReferences":{}},"methodIdentifiers":{"allowance(address,address)":"dd62ed3e","approve(address,uint256)":"095ea7b3","balanceOf(address)":"70a08231","decimals()":"313ce567","mint(address,uint256)":"40c10f19","minter()":"07546172","name()":"06fdde03","setMinter(address)":"fca3b5aa","symbol()":"95d89b41","totalSupply()":"18160ddd","transfer(address,uint256)":"a9059cbb","transferFrom(address,address,uint256)":"23b872dd"},"id":9}