{"abi":[{"type":"constructor","inputs":[],"stateMutability":"nonpayable"},{"type":"function","name":"Allblocks","inputs":[{"name":"","type":"uint256","internalType":"uint256"}],"outputs":[{"name":"id","type":"uint256","internalType":"uint256"},{"name":"miner","type":"address","internalType":"address"},{"name":"difficulty","type":"uint256","internalType":"uint256"},{"name":"timestamp","type":"uint256","internalType":"uint256"}],"stateMutability":"view"},{"type":"function","name":"blockCounter","inputs":[],"outputs":[{"name":"","type":"uint256","internalType":"uint256"}],"stateMutability":"view"},{"type":"function","name":"currentSeason","inputs":[],"outputs":[{"name":"","type":"uint256","internalType":"uint256"}],"stateMutability":"view"},{"type":"function","name":"currentSeasonPlayers","inputs":[],"outputs":[{"name":"","type":"uint256","internalType":"uint256"}],"stateMutability":"view"},{"type":"function","name":"endSeasonAndDistribute","inputs":[],"outputs":[],"stateMutability":"nonpayable"},{"type":"function","name":"first","inputs":[],"outputs":[{"name":"","type":"address","internalType":"address"}],"stateMutability":"view"},{"type":"function","name":"firstPrize","inputs":[],"outputs":[{"name":"","type":"uint256","internalType":"uint256"}],"stateMutability":"view"},{"type":"function","name":"getAllBlocks","inputs":[],"outputs":[{"name":"","type":"tuple[]","internalType":"struct MiningWars.BlockSubmission[]","components":[{"name":"id","type":"uint256","internalType":"uint256"},{"name":"miner","type":"address","internalType":"address"},{"name":"difficulty","type":"uint256","internalType":"uint256"},{"name":"timestamp","type":"uint256","internalType":"uint256"}]}],"stateMutability":"view"},{"type":"function","name":"getBlock","inputs":[{"name":"id","type":"uint256","internalType":"uint256"}],"outputs":[{"name":"","type":"tuple","internalType":"struct MiningWars.BlockSubmission","components":[{"name":"id","type":"uint256","internalType":"uint256"},{"name":"miner","type":"address","internalType":"address"},{"name":"difficulty","type":"uint256","internalType":"uint256"},{"name":"timestamp","type":"uint256","internalType":"uint256"}]}],"stateMutability":"view"},{"type":"function","name":"getScore","inputs":[{"name":"miner","type":"address","internalType":"address"}],"outputs":[{"name":"","type":"uint256","internalType":"uint256"}],"stateMutability":"view"},{"type":"function","name":"minerBlocks","inputs":[{"name":"","type":"address","internalType":"address"},{"name":"","type":"uint256","internalType":"uint256"}],"outputs":[{"name":"","type":"uint256","internalType":"uint256"}],"stateMutability":"view"},{"type":"function","name":"miners","inputs":[{"name":"","type":"uint256","internalType":"uint256"}],"outputs":[{"name":"","type":"address","internalType":"address"}],"stateMutability":"view"},{"type":"function","name":"owner","inputs":[],"outputs":[{"name":"","type":"address","internalType":"address"}],"stateMutability":"view"},{"type":"function","name":"pause","inputs":[],"outputs":[{"name":"","type":"bool","internalType":"bool"}],"stateMutability":"view"},{"type":"function","name":"perBlockReward","inputs":[],"outputs":[{"name":"","type":"uint256","internalType":"uint256"}],"stateMutability":"view"},{"type":"function","name":"registerMiner","inputs":[],"outputs":[],"stateMutability":"nonpayable"},{"type":"function","name":"registered","inputs":[{"name":"","type":"address","internalType":"address"}],"outputs":[{"name":"","type":"bool","internalType":"bool"}],"stateMutability":"view"},{"type":"function","name":"rewardsToken","inputs":[],"outputs":[{"name":"","type":"address","internalType":"address"}],"stateMutability":"view"},{"type":"function","name":"scores","inputs":[{"name":"","type":"address","internalType":"address"}],"outputs":[{"name":"","type":"uint256","internalType":"uint256"}],"stateMutability":"view"},{"type":"function","name":"seasonDuration","inputs":[],"outputs":[{"name":"","type":"uint256","internalType":"uint256"}],"stateMutability":"view"},{"type":"function","name":"seasonEndTime","inputs":[],"outputs":[{"name":"","type":"uint256","internalType":"uint256"}],"stateMutability":"view"},{"type":"function","name":"seasonParticipants","inputs":[{"name":"","type":"uint256","internalType":"uint256"},{"name":"","type":"uint256","internalType":"uint256"}],"outputs":[{"name":"","type":"address","internalType":"address"}],"stateMutability":"view"},{"type":"function","name":"seasonScore","inputs":[{"name":"","type":"uint256","internalType":"uint256"},{"name":"","type":"address","internalType":"address"}],"outputs":[{"name":"","type":"uint256","internalType":"uint256"}],"stateMutability":"view"},{"type":"function","name":"seasonStartTime","inputs":[],"outputs":[{"name":"","type":"uint256","internalType":"uint256"}],"stateMutability":"view"},{"type":"function","name":"second","inputs":[],"outputs":[{"name":"","type":"address","internalType":"address"}],"stateMutability":"view"},{"type":"function","name":"secondPrize","inputs":[],"outputs":[{"name":"","type":"uint256","internalType":"uint256"}],"stateMutability":"view"},{"type":"function","name":"setOwner","inputs":[{"name":"newOwner","type":"address","internalType":"address"}],"outputs":[],"stateMutability":"nonpayable"},{"type":"function","name":"setPause","inputs":[{"name":"p","type":"bool","internalType":"bool"}],"outputs":[],"stateMutability":"nonpayable"},{"type":"function","name":"setPerBlockReward","inputs":[{"name":"amount","type":"uint256","internalType":"uint256"}],"outputs":[],"stateMutability":"nonpayable"},{"type":"function","name":"setSeasonPrizes","inputs":[{"name":"_first","type":"uint256","internalType":"uint256"},{"name":"_second","type":"uint256","internalType":"uint256"},{"name":"_third","type":"uint256","internalType":"uint256"}],"outputs":[],"stateMutability":"nonpayable"},{"type":"function","name":"setSeasonTime","inputs":[{"name":"duration","type":"uint256","internalType":"uint256"}],"outputs":[],"stateMutability":"nonpayable"},{"type":"function","name":"setToken","inputs":[{"name":"token","type":"address","internalType":"address"}],"outputs":[],"stateMutability":"nonpayable"},{"type":"function","name":"startSeason","inputs":[],"outputs":[],"stateMutability":"nonpayable"},{"type":"function","name":"submitBlock","inputs":[{"name":"difficulty","type":"uint256","internalType":"uint256"}],"outputs":[],"stateMutability":"nonpayable"},{"type":"function","name":"third","inputs":[],"outputs":[{"name":"","type":"address","internalType":"address"}],"stateMutability":"view"},{"type":"function","name":"thirdPrize","inputs":[],"outputs":[{"name":"","type":"uint256","internalType":"uint256"}],"stateMutability":"view"},{"type":"event","name":"BlockMined","inputs":[{"name":"id","type":"uint256","indexed":true,"internalType":"uint256"},{"name":"miner","type":"address","indexed":true,"internalType":"address"},{"name":"difficulty","type":"uint256","indexed":true,"internalType":"uint256"}],"anonymous":false},{"type":"event","name":"ConfigUpdate","inputs":[{"name":"what","type":"bytes32","indexed":false,"internalType":"bytes32"},{"name":"value","type":"uint256","indexed":false,"internalType":"uint256"}],"anonymous":false},{"type":"event","name":"MinerRegistered","inputs":[{"name":"miner","type":"address","indexed":true,"internalType":"address"}],"anonymous":false},{"type":"event","name":"RewardPaid","inputs":[{"name":"to","type":"address","indexed":true,"internalType":"address"},{"name":"amount","type":"uint256","indexed":false,"internalType":"uint256"},{"name":"reason","type":"bytes32","indexed":false,"internalType":"bytes32"}],"anonymous":false},{"type":"event","name":"SeasonEnd","inputs":[{"name":"seasonId","type":"uint256","indexed":true,"internalType":"uint256"},{"name":"winners","type":"address[3]","indexed":false,"internalType":"address[3]"},{"name":"amounts","type":"uint256[3]","indexed":false,"internalType":"uint256[3]"}],"anonymous":false},{"type":"event","name":"SeasonStarted","inputs":[{"name":"seasonId","type":"uint256","indexed":true,"internalType":"uint256"},{"name":"start","type":"uint256","indexed":false,"internalType":"uint256"},{"name":"end","type":"uint256","indexed":false,"internalType":"uint256"},{"name":"perblockReward","type":"uint256","indexed":false,"internalType":"uint256"}],"anonymous":false},{"type":"event","name":"TokenSet","inputs":[{"name":"token","type":"address","indexed":true,"internalType":"address"}],"anonymous":false}],"bytecode":{"object":"0x60806040525f600155624f1a00600f555f601655348015601d575f5ffd5b503360095f6101000a81548173ffffffffffffffffffffffffffffffffffffffff021916908373ffffffffffffffffffffffffffffffffffffffff1602179055506132dc8061006b5f395ff3fe608060405234801561000f575f5ffd5b506004361061021a575f3560e01c8063835a8ed311610123578063b2dd5c07116100ab578063d1af0c7d1161007a578063d1af0c7d1461060b578063d47875d014610629578063df2eaf5114610659578063e0d152af14610663578063e76c5908146106935761021a565b8063b2dd5c0714610583578063bb413c8d146105b3578063bcb39621146105d1578063bedb86fb146105ef5761021a565b806394ec8277116100f257806394ec8277146104da578063952a9633146104f857806398c3213014610502578063a6dc677114610532578063a95ef0bc146105505761021a565b8063835a8ed3146104625780638456cb59146104805780638da5cb5b1461049e57806393fa7126146104bc5761021a565b80633d70bc52116101a65780635a8ac02d116101755780635a8ac02d146103be5780636d88cee7146103dc57806373e9710f146103f857806376dd110f146104145780638104ae4d146104445761021a565b80633d70bc52146103485780633df4ddf4146103665780635189ef481461038457806354cf1d8d146103a25761021a565b8063144fa6d7116101ed578063144fa6d7146102b857806315b2dc01146102d4578063190fac6e146102f05780632a7352a2146103205780632e98520c1461032a5761021a565b806304c075691461021e57806307ac1a531461024e5780630dc534801461026c57806313af40351461029c575b5f5ffd5b61023860048036038101906102339190612718565b6106b1565b60405161024591906127e4565b60405180910390f35b6102566107b8565b604051610263919061280c565b60405180910390f35b6102866004803603810190610281919061284f565b6107be565b604051610293919061280c565b60405180910390f35b6102b660048036038101906102b1919061288d565b6107de565b005b6102d260048036038101906102cd919061288d565b6108b0565b005b6102ee60048036038101906102e99190612718565b6109c5565b005b61030a600480360381019061030591906128b8565b610a6c565b604051610317919061280c565b60405180910390f35b610328610a97565b005b6103326112e5565b60405161033f919061280c565b60405180910390f35b6103506112eb565b60405161035d919061280c565b60405180910390f35b61036e6112f1565b60405161037b9190612905565b60405180910390f35b61038c611316565b604051610399919061280c565b60405180910390f35b6103bc60048036038101906103b7919061291e565b61131c565b005b6103c661144f565b6040516103d39190612905565b60405180910390f35b6103f660048036038101906103f19190612718565b611474565b005b610412600480360381019061040d9190612718565b61150d565b005b61042e6004803603810190610429919061288d565b611baf565b60405161043b919061280c565b60405180910390f35b61044c611bc4565b604051610459919061280c565b60405180910390f35b61046a611bca565b604051610477919061280c565b60405180910390f35b610488611bd0565b6040516104959190612988565b60405180910390f35b6104a6611be2565b6040516104b39190612905565b60405180910390f35b6104c4611c07565b6040516104d19190612a9c565b60405180910390f35b6104e2611cd4565b6040516104ef919061280c565b60405180910390f35b610500611cda565b005b61051c60048036038101906105179190612abc565b611e27565b6040516105299190612905565b60405180910390f35b61053a611e6f565b6040516105479190612905565b60405180910390f35b61056a60048036038101906105659190612718565b611e94565b60405161057a9493929190612afa565b60405180910390f35b61059d6004803603810190610598919061288d565b611eed565b6040516105aa9190612988565b60405180910390f35b6105bb611f0a565b6040516105c8919061280c565b60405180910390f35b6105d9611f10565b6040516105e6919061280c565b60405180910390f35b61060960048036038101906106049190612b67565b611f16565b005b610613611fc1565b6040516106209190612905565b60405180910390f35b610643600480360381019061063e919061288d565b611fe6565b604051610650919061280c565b60405180910390f35b61066161202c565b005b61067d60048036038101906106789190612718565b6121b0565b60405161068a9190612905565b60405180910390f35b61069b6121eb565b6040516106a8919061280c565b60405180910390f35b6106b96126a7565b5f821180156106ca57506001548211155b610709576040517f08c379a000000000000000000000000000000000000000000000000000000000815260040161070090612bec565b60405180910390fd5b5f6001836107179190612c37565b8154811061072857610727612c6a565b5b905f5260205f2090600402016040518060800160405290815f8201548152602001600182015f9054906101000a900473ffffffffffffffffffffffffffffffffffffffff1673ffffffffffffffffffffffffffffffffffffffff1673ffffffffffffffffffffffffffffffffffffffff168152602001600282015481526020016003820154815250509050919050565b600d5481565b6005602052815f5260405f20602052805f5260405f205f91509150505481565b60095f9054906101000a900473ffffffffffffffffffffffffffffffffffffffff1673ffffffffffffffffffffffffffffffffffffffff163373ffffffffffffffffffffffffffffffffffffffff161461086d576040517f08c379a000000000000000000000000000000000000000000000000000000000815260040161086490612ce1565b60405180910390fd5b8060095f6101000a81548173ffffffffffffffffffffffffffffffffffffffff021916908373ffffffffffffffffffffffffffffffffffffffff16021790555050565b60095f9054906101000a900473ffffffffffffffffffffffffffffffffffffffff1673ffffffffffffffffffffffffffffffffffffffff163373ffffffffffffffffffffffffffffffffffffffff161461093f576040517f08c379a000000000000000000000000000000000000000000000000000000000815260040161093690612ce1565b60405180910390fd5b80600a5f6101000a81548173ffffffffffffffffffffffffffffffffffffffff021916908373ffffffffffffffffffffffffffffffffffffffff1602179055508073ffffffffffffffffffffffffffffffffffffffff167fa07c91c183e42229e705a9795a1c06d76528b673788b849597364528c96eefb760405160405180910390a250565b60095f9054906101000a900473ffffffffffffffffffffffffffffffffffffffff1673ffffffffffffffffffffffffffffffffffffffff163373ffffffffffffffffffffffffffffffffffffffff1614610a54576040517f08c379a0000000000000000000000000000000000000000000000000000000008152600401610a4b90612ce1565b60405180910390fd5b6201518081610a639190612cff565b600f8190555050565b6004602052815f5260405f208181548110610a85575f80fd5b905f5260205f20015f91509150505481565b60095f9054906101000a900473ffffffffffffffffffffffffffffffffffffffff1673ffffffffffffffffffffffffffffffffffffffff163373ffffffffffffffffffffffffffffffffffffffff1614610b26576040517f08c379a0000000000000000000000000000000000000000000000000000000008152600401610b1d90612ce1565b60405180910390fd5b600d544211610b6a576040517f08c379a0000000000000000000000000000000000000000000000000000000008152600401610b6190612d8a565b60405180910390fd5b5f73ffffffffffffffffffffffffffffffffffffffff16600a5f9054906101000a900473ffffffffffffffffffffffffffffffffffffffff1673ffffffffffffffffffffffffffffffffffffffff1603610bf9576040517f08c379a0000000000000000000000000000000000000000000000000000000008152600401610bf090612df2565b60405180910390fd5b5f73ffffffffffffffffffffffffffffffffffffffff1660135f9054906101000a900473ffffffffffffffffffffffffffffffffffffffff1673ffffffffffffffffffffffffffffffffffffffff1614610d8d57600a5f9054906101000a900473ffffffffffffffffffffffffffffffffffffffff1673ffffffffffffffffffffffffffffffffffffffff166340c10f1960135f9054906101000a900473ffffffffffffffffffffffffffffffffffffffff166010546040518363ffffffff1660e01b8152600401610ccc929190612e10565b5f604051808303815f87803b158015610ce3575f5ffd5b505af1158015610cf5573d5f5f3e3d5ffd5b5050505060135f9054906101000a900473ffffffffffffffffffffffffffffffffffffffff1673ffffffffffffffffffffffffffffffffffffffff167f25d820333c9a561247c10864c5a61ff35d1b52a4d260cd78ffd379c9921a41876010547f4aaaf9fadbf58b307e5717e7483a6854798e6688c46c3855b9dbbc0e41c318b7604051610d84929190612e4f565b60405180910390a25b5f73ffffffffffffffffffffffffffffffffffffffff1660145f9054906101000a900473ffffffffffffffffffffffffffffffffffffffff1673ffffffffffffffffffffffffffffffffffffffff1614610f2157600a5f9054906101000a900473ffffffffffffffffffffffffffffffffffffffff1673ffffffffffffffffffffffffffffffffffffffff166340c10f1960145f9054906101000a900473ffffffffffffffffffffffffffffffffffffffff166011546040518363ffffffff1660e01b8152600401610e60929190612e10565b5f604051808303815f87803b158015610e77575f5ffd5b505af1158015610e89573d5f5f3e3d5ffd5b5050505060145f9054906101000a900473ffffffffffffffffffffffffffffffffffffffff1673ffffffffffffffffffffffffffffffffffffffff167f25d820333c9a561247c10864c5a61ff35d1b52a4d260cd78ffd379c9921a41876011547f709322f7cf625fb42d84e33fc5a375f85c738eb31ee6f3a09c77f94de39c2a87604051610f18929190612e4f565b60405180910390a25b5f73ffffffffffffffffffffffffffffffffffffffff1660155f9054906101000a900473ffffffffffffffffffffffffffffffffffffffff1673ffffffffffffffffffffffffffffffffffffffff16146110b557600a5f9054906101000a900473ffffffffffffffffffffffffffffffffffffffff1673ffffffffffffffffffffffffffffffffffffffff166340c10f1960155f9054906101000a900473ffffffffffffffffffffffffffffffffffffffff166012546040518363ffffffff1660e01b8152600401610ff4929190612e10565b5f604051808303815f87803b15801561100b575f5ffd5b505af115801561101d573d5f5f3e3d5ffd5b5050505060155f9054906101000a900473ffffffffffffffffffffffffffffffffffffffff1673ffffffffffffffffffffffffffffffffffffffff167f25d820333c9a561247c10864c5a61ff35d1b52a4d260cd78ffd379c9921a41876012547f16f167ee372c4925c412831e2a603a112ffea04de274d4cb125d4539e0dfe3656040516110ac929190612e4f565b60405180910390a25b5f6016819055505f604051806060016040528060135f9054906101000a900473ffffffffffffffffffffffffffffffffffffffff1673ffffffffffffffffffffffffffffffffffffffff1673ffffffffffffffffffffffffffffffffffffffff16815260200160145f9054906101000a900473ffffffffffffffffffffffffffffffffffffffff1673ffffffffffffffffffffffffffffffffffffffff1673ffffffffffffffffffffffffffffffffffffffff16815260200160155f9054906101000a900473ffffffffffffffffffffffffffffffffffffffff1673ffffffffffffffffffffffffffffffffffffffff1673ffffffffffffffffffffffffffffffffffffffff1681525090505f60135f6101000a81548173ffffffffffffffffffffffffffffffffffffffff021916908373ffffffffffffffffffffffffffffffffffffffff1602179055505f60145f6101000a81548173ffffffffffffffffffffffffffffffffffffffff021916908373ffffffffffffffffffffffffffffffffffffffff1602179055505f60155f6101000a81548173ffffffffffffffffffffffffffffffffffffffff021916908373ffffffffffffffffffffffffffffffffffffffff1602179055505f6040518060600160405280601054815260200160115481526020016012548152509050600e547fd5269bdd37d83692c7b3959c11e2f131b5c536fc29a9e7ccc7ed93aa45e6cb7383836040516112d9929190612fa2565b60405180910390a25050565b60105481565b60115481565b60135f9054906101000a900473ffffffffffffffffffffffffffffffffffffffff1681565b60165481565b60095f9054906101000a900473ffffffffffffffffffffffffffffffffffffffff1673ffffffffffffffffffffffffffffffffffffffff163373ffffffffffffffffffffffffffffffffffffffff16146113ab576040517f08c379a00000000000000000000000000000000000000000000000000000000081526004016113a290612ce1565b60405180910390fd5b600d544211156113f0576040517f08c379a00000000000000000000000000000000000000000000000000000000081526004016113e790613013565b60405180910390fd5b600c54421015611435576040517f08c379a000000000000000000000000000000000000000000000000000000000815260040161142c9061307b565b60405180910390fd5b826010819055508160118190555080601281905550505050565b60145f9054906101000a900473ffffffffffffffffffffffffffffffffffffffff1681565b60095f9054906101000a900473ffffffffffffffffffffffffffffffffffffffff1673ffffffffffffffffffffffffffffffffffffffff163373ffffffffffffffffffffffffffffffffffffffff1614611503576040517f08c379a00000000000000000000000000000000000000000000000000000000081526004016114fa90612ce1565b60405180910390fd5b80600b8190555050565b6001151560035f3373ffffffffffffffffffffffffffffffffffffffff1673ffffffffffffffffffffffffffffffffffffffff1681526020019081526020015f205f9054906101000a900460ff1615151461159d576040517f08c379a0000000000000000000000000000000000000000000000000000000008152600401611594906130e3565b60405180910390fd5b600d544211156115e2576040517f08c379a00000000000000000000000000000000000000000000000000000000081526004016115d990613013565b60405180910390fd5b600c54421015611627576040517f08c379a000000000000000000000000000000000000000000000000000000000815260040161161e9061307b565b60405180910390fd5b5f8111611669576040517f08c379a000000000000000000000000000000000000000000000000000000000815260040161166090613171565b60405180910390fd5b60175f9054906101000a900460ff1615611681575f5ffd5b5f73ffffffffffffffffffffffffffffffffffffffff16600a5f9054906101000a900473ffffffffffffffffffffffffffffffffffffffff1673ffffffffffffffffffffffffffffffffffffffff1603611710576040517f08c379a000000000000000000000000000000000000000000000000000000000815260040161170790612df2565b60405180910390fd5b5f151560075f600e5481526020019081526020015f205f3373ffffffffffffffffffffffffffffffffffffffff1673ffffffffffffffffffffffffffffffffffffffff1681526020019081526020015f205f9054906101000a900460ff1615150361186457600160075f600e5481526020019081526020015f205f3373ffffffffffffffffffffffffffffffffffffffff1673ffffffffffffffffffffffffffffffffffffffff1681526020019081526020015f205f6101000a81548160ff02191690831515021790555060065f600e5481526020019081526020015f2033908060018154018082558091505060019003905f5260205f20015f9091909190916101000a81548173ffffffffffffffffffffffffffffffffffffffff021916908373ffffffffffffffffffffffffffffffffffffffff16021790555060165f81548092919061185e9061318f565b91905055505b6001805f82825461187591906131d6565b925050819055505f604051806080016040528060015481526020013373ffffffffffffffffffffffffffffffffffffffff1681526020018381526020014281525090505f81908060018154018082558091505060019003905f5260205f2090600402015f909190919091505f820151815f01556020820151816001015f6101000a81548173ffffffffffffffffffffffffffffffffffffffff021916908373ffffffffffffffffffffffffffffffffffffffff160217905550604082015181600201556060820151816003015550508160055f600e5481526020019081526020015f205f3373ffffffffffffffffffffffffffffffffffffffff1673ffffffffffffffffffffffffffffffffffffffff1681526020019081526020015f205f8282546119a191906131d6565b925050819055508160025f3373ffffffffffffffffffffffffffffffffffffffff1673ffffffffffffffffffffffffffffffffffffffff1681526020019081526020015f205f8282546119f491906131d6565b92505081905550611a04336121f1565b60045f3373ffffffffffffffffffffffffffffffffffffffff1673ffffffffffffffffffffffffffffffffffffffff1681526020019081526020015f20600154908060018154018082558091505060019003905f5260205f20015f9091909190915055813373ffffffffffffffffffffffffffffffffffffffff166001547f277311c58ef8f52ed9227bfe477a3690aa406b220e1ea1e0e59ca8fb626a0d2a60405160405180910390a4600a5f9054906101000a900473ffffffffffffffffffffffffffffffffffffffff1673ffffffffffffffffffffffffffffffffffffffff166340c10f1933600b546040518363ffffffff1660e01b8152600401611b0c929190612e10565b5f604051808303815f87803b158015611b23575f5ffd5b505af1158015611b35573d5f5f3e3d5ffd5b505050503373ffffffffffffffffffffffffffffffffffffffff167f25d820333c9a561247c10864c5a61ff35d1b52a4d260cd78ffd379c9921a4187600b547f2a8117b3d75436fcf40bbc861f65038ea9ecb260706c33cfe5445e66c351e214604051611ba3929190612e4f565b60405180910390a25050565b6002602052805f5260405f205f915090505481565b600c5481565b60125481565b60175f9054906101000a900460ff1681565b60095f9054906101000a900473ffffffffffffffffffffffffffffffffffffffff1681565b60605f805480602002602001604051908101604052809291908181526020015f905b82821015611ccb578382905f5260205f2090600402016040518060800160405290815f8201548152602001600182015f9054906101000a900473ffffffffffffffffffffffffffffffffffffffff1673ffffffffffffffffffffffffffffffffffffffff1673ffffffffffffffffffffffffffffffffffffffff1681526020016002820154815260200160038201548152505081526020019060010190611c29565b50505050905090565b600b5481565b60095f9054906101000a900473ffffffffffffffffffffffffffffffffffffffff1673ffffffffffffffffffffffffffffffffffffffff163373ffffffffffffffffffffffffffffffffffffffff1614611d69576040517f08c379a0000000000000000000000000000000000000000000000000000000008152600401611d6090612ce1565b60405180910390fd5b600d544211611dad576040517f08c379a0000000000000000000000000000000000000000000000000000000008152600401611da490612d8a565b60405180910390fd5b6001600e5f828254611dbf91906131d6565b9250508190555042600c81905550600f5442611ddb91906131d6565b600d81905550600e547f3cdd13e3901d00a665f6399db95da709594e0a886050dea8496c5be164a6dbce600c54600d54600b54604051611e1d93929190613209565b60405180910390a2565b6006602052815f5260405f208181548110611e40575f80fd5b905f5260205f20015f915091509054906101000a900473ffffffffffffffffffffffffffffffffffffffff1681565b60155f9054906101000a900473ffffffffffffffffffffffffffffffffffffffff1681565b5f8181548110611ea2575f80fd5b905f5260205f2090600402015f91509050805f015490806001015f9054906101000a900473ffffffffffffffffffffffffffffffffffffffff16908060020154908060030154905084565b6003602052805f5260405f205f915054906101000a900460ff1681565b60015481565b600e5481565b60095f9054906101000a900473ffffffffffffffffffffffffffffffffffffffff1673ffffffffffffffffffffffffffffffffffffffff163373ffffffffffffffffffffffffffffffffffffffff1614611fa5576040517f08c379a0000000000000000000000000000000000000000000000000000000008152600401611f9c90612ce1565b60405180910390fd5b8060175f6101000a81548160ff02191690831515021790555050565b600a5f9054906101000a900473ffffffffffffffffffffffffffffffffffffffff1681565b5f60025f8373ffffffffffffffffffffffffffffffffffffffff1673ffffffffffffffffffffffffffffffffffffffff1681526020019081526020015f20549050919050565b60035f3373ffffffffffffffffffffffffffffffffffffffff1673ffffffffffffffffffffffffffffffffffffffff1681526020019081526020015f205f9054906101000a900460ff16156120b6576040517f08c379a00000000000000000000000000000000000000000000000000000000081526004016120ad90613288565b60405180910390fd5b600160035f3373ffffffffffffffffffffffffffffffffffffffff1673ffffffffffffffffffffffffffffffffffffffff1681526020019081526020015f205f6101000a81548160ff021916908315150217905550600833908060018154018082558091505060019003905f5260205f20015f9091909190916101000a81548173ffffffffffffffffffffffffffffffffffffffff021916908373ffffffffffffffffffffffffffffffffffffffff1602179055503373ffffffffffffffffffffffffffffffffffffffff167f30dc1a9818dfa394a52367aed82d460cee0818f586de2f7c849893fdda65d68f60405160405180910390a2565b600881815481106121bf575f80fd5b905f5260205f20015f915054906101000a900473ffffffffffffffffffffffffffffffffffffffff1681565b600f5481565b5f60055f600e5481526020019081526020015f205f8373ffffffffffffffffffffffffffffffffffffffff1673ffffffffffffffffffffffffffffffffffffffff1681526020019081526020015f2054905060055f600e5481526020019081526020015f205f60135f9054906101000a900473ffffffffffffffffffffffffffffffffffffffff1673ffffffffffffffffffffffffffffffffffffffff1673ffffffffffffffffffffffffffffffffffffffff1681526020019081526020015f20548111156123c15760145f9054906101000a900473ffffffffffffffffffffffffffffffffffffffff1660155f6101000a81548173ffffffffffffffffffffffffffffffffffffffff021916908373ffffffffffffffffffffffffffffffffffffffff16021790555060135f9054906101000a900473ffffffffffffffffffffffffffffffffffffffff1660145f6101000a81548173ffffffffffffffffffffffffffffffffffffffff021916908373ffffffffffffffffffffffffffffffffffffffff1602179055508160135f6101000a81548173ffffffffffffffffffffffffffffffffffffffff021916908373ffffffffffffffffffffffffffffffffffffffff1602179055506126a3565b60055f600e5481526020019081526020015f205f60145f9054906101000a900473ffffffffffffffffffffffffffffffffffffffff1673ffffffffffffffffffffffffffffffffffffffff1673ffffffffffffffffffffffffffffffffffffffff1681526020019081526020015f20548111801561248c575060135f9054906101000a900473ffffffffffffffffffffffffffffffffffffffff1673ffffffffffffffffffffffffffffffffffffffff168273ffffffffffffffffffffffffffffffffffffffff1614155b156125375760145f9054906101000a900473ffffffffffffffffffffffffffffffffffffffff1660155f6101000a81548173ffffffffffffffffffffffffffffffffffffffff021916908373ffffffffffffffffffffffffffffffffffffffff1602179055508160145f6101000a81548173ffffffffffffffffffffffffffffffffffffffff021916908373ffffffffffffffffffffffffffffffffffffffff1602179055506126a2565b60055f600e5481526020019081526020015f205f60155f9054906101000a900473ffffffffffffffffffffffffffffffffffffffff1673ffffffffffffffffffffffffffffffffffffffff1673ffffffffffffffffffffffffffffffffffffffff1681526020019081526020015f205481118015612602575060135f9054906101000a900473ffffffffffffffffffffffffffffffffffffffff1673ffffffffffffffffffffffffffffffffffffffff168273ffffffffffffffffffffffffffffffffffffffff1614155b801561265b575060145f9054906101000a900473ffffffffffffffffffffffffffffffffffffffff1673ffffffffffffffffffffffffffffffffffffffff168273ffffffffffffffffffffffffffffffffffffffff1614155b156126a1578160155f6101000a81548173ffffffffffffffffffffffffffffffffffffffff021916908373ffffffffffffffffffffffffffffffffffffffff1602179055505b5b5b5050565b60405180608001604052805f81526020015f73ffffffffffffffffffffffffffffffffffffffff1681526020015f81526020015f81525090565b5f5ffd5b5f819050919050565b6126f7816126e5565b8114612701575f5ffd5b50565b5f81359050612712816126ee565b92915050565b5f6020828403121561272d5761272c6126e1565b5b5f61273a84828501612704565b91505092915050565b61274c816126e5565b82525050565b5f73ffffffffffffffffffffffffffffffffffffffff82169050919050565b5f61277b82612752565b9050919050565b61278b81612771565b82525050565b608082015f8201516127a55f850182612743565b5060208201516127b86020850182612782565b5060408201516127cb6040850182612743565b5060608201516127de6060850182612743565b50505050565b5f6080820190506127f75f830184612791565b92915050565b612806816126e5565b82525050565b5f60208201905061281f5f8301846127fd565b92915050565b61282e81612771565b8114612838575f5ffd5b50565b5f8135905061284981612825565b92915050565b5f5f60408385031215612865576128646126e1565b5b5f61287285828601612704565b92505060206128838582860161283b565b9150509250929050565b5f602082840312156128a2576128a16126e1565b5b5f6128af8482850161283b565b91505092915050565b5f5f604083850312156128ce576128cd6126e1565b5b5f6128db8582860161283b565b92505060206128ec85828601612704565b9150509250929050565b6128ff81612771565b82525050565b5f6020820190506129185f8301846128f6565b92915050565b5f5f5f60608486031215612935576129346126e1565b5b5f61294286828701612704565b935050602061295386828701612704565b925050604061296486828701612704565b9150509250925092565b5f8115159050919050565b6129828161296e565b82525050565b5f60208201905061299b5f830184612979565b92915050565b5f81519050919050565b5f82825260208201905092915050565b5f819050602082019050919050565b608082015f8201516129de5f850182612743565b5060208201516129f16020850182612782565b506040820151612a046040850182612743565b506060820151612a176060850182612743565b50505050565b5f612a2883836129ca565b60808301905092915050565b5f602082019050919050565b5f612a4a826129a1565b612a5481856129ab565b9350612a5f836129bb565b805f5b83811015612a8f578151612a768882612a1d565b9750612a8183612a34565b925050600181019050612a62565b5085935050505092915050565b5f6020820190508181035f830152612ab48184612a40565b905092915050565b5f5f60408385031215612ad257612ad16126e1565b5b5f612adf85828601612704565b9250506020612af085828601612704565b9150509250929050565b5f608082019050612b0d5f8301876127fd565b612b1a60208301866128f6565b612b2760408301856127fd565b612b3460608301846127fd565b95945050505050565b612b468161296e565b8114612b50575f5ffd5b50565b5f81359050612b6181612b3d565b92915050565b5f60208284031215612b7c57612b7b6126e1565b5b5f612b8984828501612b53565b91505092915050565b5f82825260208201905092915050565b7f496e76616c696420626c6f636b204944000000000000000000000000000000005f82015250565b5f612bd6601083612b92565b9150612be182612ba2565b602082019050919050565b5f6020820190508181035f830152612c0381612bca565b9050919050565b7f4e487b71000000000000000000000000000000000000000000000000000000005f52601160045260245ffd5b5f612c41826126e5565b9150612c4c836126e5565b9250828203905081811115612c6457612c63612c0a565b5b92915050565b7f4e487b71000000000000000000000000000000000000000000000000000000005f52603260045260245ffd5b7f596f7520617265206e6f7420746865206f776e657200000000000000000000005f82015250565b5f612ccb601583612b92565b9150612cd682612c97565b602082019050919050565b5f6020820190508181035f830152612cf881612cbf565b9050919050565b5f612d09826126e5565b9150612d14836126e5565b9250828202612d22816126e5565b91508282048414831517612d3957612d38612c0a565b5b5092915050565b7f536561736f6e206973207374696c6c20616374697665000000000000000000005f82015250565b5f612d74601683612b92565b9150612d7f82612d40565b602082019050919050565b5f6020820190508181035f830152612da181612d68565b9050919050565b7f5265776172647320746f6b656e206e6f742073657400000000000000000000005f82015250565b5f612ddc601583612b92565b9150612de782612da8565b602082019050919050565b5f6020820190508181035f830152612e0981612dd0565b9050919050565b5f604082019050612e235f8301856128f6565b612e3060208301846127fd565b9392505050565b5f819050919050565b612e4981612e37565b82525050565b5f604082019050612e625f8301856127fd565b612e6f6020830184612e40565b9392505050565b5f60039050919050565b5f81905092915050565b5f819050919050565b5f612e9e8383612782565b60208301905092915050565b5f602082019050919050565b612ebf81612e76565b612ec98184612e80565b9250612ed482612e8a565b805f5b83811015612f04578151612eeb8782612e93565b9650612ef683612eaa565b925050600181019050612ed7565b505050505050565b5f60039050919050565b5f81905092915050565b5f819050919050565b5f612f348383612743565b60208301905092915050565b5f602082019050919050565b612f5581612f0c565b612f5f8184612f16565b9250612f6a82612f20565b805f5b83811015612f9a578151612f818782612f29565b9650612f8c83612f40565b925050600181019050612f6d565b505050505050565b5f60c082019050612fb55f830185612eb6565b612fc26060830184612f4c565b9392505050565b7f536561736f6e2068617320656e646564000000000000000000000000000000005f82015250565b5f612ffd601083612b92565b915061300882612fc9565b602082019050919050565b5f6020820190508181035f83015261302a81612ff1565b9050919050565b7f536561736f6e206e6f74207965742073746172746564000000000000000000005f82015250565b5f613065601683612b92565b915061307082613031565b602082019050919050565b5f6020820190508181035f83015261309281613059565b9050919050565b7f596f7520617265206e6f742072656769737465726564000000000000000000005f82015250565b5f6130cd601683612b92565b91506130d882613099565b602082019050919050565b5f6020820190508181035f8301526130fa816130c1565b9050919050565b7f646966666963756c74792073686f756c642062652067726561746572207468615f8201527f6e207a65726f0000000000000000000000000000000000000000000000000000602082015250565b5f61315b602683612b92565b915061316682613101565b604082019050919050565b5f6020820190508181035f8301526131888161314f565b9050919050565b5f613199826126e5565b91507fffffffffffffffffffffffffffffffffffffffffffffffffffffffffffffffff82036131cb576131ca612c0a565b5b600182019050919050565b5f6131e0826126e5565b91506131eb836126e5565b925082820190508082111561320357613202612c0a565b5b92915050565b5f60608201905061321c5f8301866127fd565b61322960208301856127fd565b61323660408301846127fd565b949350505050565b7f416c7265616479207265676973746572656400000000000000000000000000005f82015250565b5f613272601283612b92565b915061327d8261323e565b602082019050919050565b5f6020820190508181035f83015261329f81613266565b905091905056fea26469706673582212204b262fbca88bfe0ce76d0a458b9b44d5e8a75dc68378ecf950f747fab68e686164736f6c634300081e0033","linkReferences":{}},"methodIdentifiers":{"Allblocks(uint256)":"a95ef0bc","blockCounter()":"bb413c8d","currentSeason()":"bcb39621","currentSeasonPlayers()":"5189ef48","endSeasonAndDistribute()":"2a7352a2","first()":"3df4ddf4","firstPrize()":"2e98520c","getAllBlocks()":"93fa7126","getBlock(uint256)":"04c07569","getScore(address)":"d47875d0","minerBlocks(address,uint256)":"190fac6e","miners(uint256)":"e0d152af","owner()":"8da5cb5b","pause()":"8456cb59","perBlockReward()":"94ec8277","registerMiner()":"df2eaf51","registered(address)":"b2dd5c07","rewardsToken()":"d1af0c7d","scores(address)":"76dd110f","seasonDuration()":"e76c5908","seasonEndTime()":"07ac1a53","seasonParticipants(uint256,uint256)":"98c32130","seasonScore(uint256,address)":"0dc53480","seasonStartTime()":"8104ae4d","second()":"5a8ac02d","secondPrize()":"3d70bc52","setOwner(address)":"13af4035","setPause(bool)":"bedb86fb","setPerBlockReward(uint256)":"6d88cee7","setSeasonPrizes(uint256,uint256,uint256)":"54cf1d8d","setSeasonTime(uint256)":"15b2dc01","setToken(address)":"144fa6d7","startSeason()":"952a9633","submitBlock(uint256)":"73e9710f","third()":"a6dc6771","thirdPrize()":"835a8ed3"},"id":10}